:020000040800F2
:1000000000340020C1010008C9010008A94000080F
:10001000CD010008CF010008D10100080000000058
:10002000000000000000000000000000D3010008F4
:10003000D501000800000000D7010008D95A0008C7
:10004000DB010008DB010008DB010008DB01000820
:10005000DB010008DB010008DB010008DB01000810
:10006000DB010008DB010008DB010008DB01000800
:10007000DB010008DB010008DB010008DB010008F0
:10008000DB010008DB010008DB010008DB010008E0
:10009000DB010008DB010008DB010008DB010008D0
:1000A000DB010008DB010008DB010008DB010008C0
:1000B000DB010008DB010008DB010008DB010008B0
:1000C000DB010008DB010008DB010008DB010008A0
:1000D000DB010008DB010008DB010008DB01000890
:1000E000DB010008DB010008DB010008DB01000880
:1000F000DB010008DB010008DB010008DB01000870
:10010000DB010008DB010008DB010008DB0100085F
:10011000DB010008DB010008DB010008DB0100084F
:100120000D05000819050008DB010008DB010008C7
:10013000DB010008DB010008DB010008DB0100082F
:10014000DB010008DB010008DB01000811480008A2
:10015000DB010008DB010008DB010008DB0100080F
:10016000DB010008DB010008DB010008DB010008FF
:10017000DB010008DB010008F504000800000000B6
:10018000DB010008DB010008DB010008DB010008DF
:10019000DB010008DB010008DB010008DB010008CF
:1001A000DB010008DB010008DB010008DFF80CD0F0
:1001B00000F094F800480047A176000800340020C1
:1001C0000648804706480047FEE7FEE7FEE7FEE7F1
:1001D000FEE7FEE7FEE7FEE7FEE7FEE74D5B000811
:1001E000AD0100082DE9F05F0546002092469B46D0
:1001F00088460646814640241BE02846414647463D
:10020000224600F05AF853465A46C01A914110D37C
:1002100011461846224600F041F82D1A67EB0108F6
:100220004F4622460120002100F038F817EB000964
:100230004E41201EA4F10104DFDC484631462A4627
:100240004346BDE8F09F40EA01039B0703D009E065
:1002500008C9121F08C0042AFAD203E011F8013BB2
:1002600000F8013B521EF9D27047D2B201E000F80B
:10027000012B491EFBD270470022F6E710B513464A
:100280000A4604461946FFF7F0FF204610BD421CFF
:1002900010F8011B0029FBD1801A7047202A04DBCB
:1002A000203A00FA02F1002070479140C2F1200389
:1002B00020FA03F3194390407047202A04DB203AC8
:1002C00021FA02F00021704721FA02F3D040C2F176
:1002D000200291400843194670470000064C074D24
:1002E00006E0E06840F0010394E807009847103406
:1002F000AC42F6D3FFF75EFFA87B0008C87B00087E
:1003000070B501EB020410F8015B15F0070301D191
:1003100010F8013B2A1106D110F8012B03E010F868
:10032000016B01F8016B5B1EF9D12B0705D400238B
:10033000521E0FD401F8013BFAE710F8013B02F11D
:100340000202A1EB030303E013F8015B01F8015B78
:10035000521EF9D5A142D6D3002070BD01460148F6
:1003600002F0CCBFD0030020014802F0A0BF000083
:10037000D00300201FB501208DF800009DF800007B
:10038000012802D0012004B010BD0C490C4803F034
:1003900001F904000DD16946094802F04FFF9DF8AC
:1003A0000000042807D00021054803F0D7FA00B167
:1003B00001242046E7E74FF40061F5E73004002010
:1003C000D00300201CB5DDE90414CDE9001401467A
:1003D000034803F05BF9002800D001201CBD000099
:1003E000D00300201CB5DDE90414CDE9001401465A
:1003F000034803F0E2FA002800D001201CBD0000F1
:10040000D003002000B597B06946034802F076FF9C
:10041000149817B000BD0000D003002000B597B0BD
:100420006946034802F06AFFDDE9120117B000BD1A
:10043000D003002010B5846B012084F82500A06A49
:10044000E0B1A36B18680168A26A01F40021D20729
:1004500005D121B1C068E16A00EBC10107E0016884
:1004600009031DD40069E16A012200EBC1011846AD
:1004700000F001FBA06AA0F1010010E0A06B006891
:100480000168090302D5616BC16009E001680903D5
:1004900006D4E26A616B01EB82010161206BA0620C
:1004A00020688068C00705D0002084F8240020461A
:1004B00000F040F9204600F01BF910BD10B5C26CE9
:1004C00088B0044607A1684606F01CFE684600F0A6
:1004D0004DF8A06B012180F8251000F015F908B047
:1004E00010BD0000444D412045525220434F444529
:1004F0003A25780010B54E2001F0D8FEBDE8104036
:10050000014800F027B9000058030020014800F01E
:100510002BBB00008802002010B5392001F0C6FE78
:10052000BDE81040014800F01FBB00005C05002042
:1005300010B5046863608368402B036803D099603A
:100540000068C26010BD9A600068C16010BD10B53F
:10055000046863608368402B036803D09960006877
:10056000C26010BD9A600068C16010BD10B504463D
:10057000054807F0ABF9204607F0A8F90248BDE8A6
:100580001040001F07F0A2B9787B000870B5034641
:100590005502480200241A46294605F0F1F80128C0
:1005A00000D00124204670BD70B5034655024802B4
:1005B00000241A46294605F036F9012800D0012406
:1005C000204670BD10B50C4A04460120137B022B57
:1005D00011D8107B00231354107B02EB8000446081
:1005E000107B441C1473303008703A2048702F2060
:1005F0008870CB70184610BD800D002030B5D1E951
:1006000001231A43D1E9033423431A434B690D688C
:100610001A438B691A43D1E90734496A012D04D082
:100620001A4322430A43026003E023430B4303605F
:100630004260002030BD426942EA41014161002030
:100640007047F8B514460546D1E9000210438A68A0
:100650006FF01F03C96803EB421242EA41210843CD
:100660000090286101F0F4FB0646A86980060BD5CE
:10067000601C07D024B101F0EBFB801BA04201D924
:100680000320F8BD0120F8BD0020F8BDF0B56FF0E3
:100690000F054C680B6805EB04145B1E2E01234309
:1006A0008C682F0306EB04244FEA054C23430D8A84
:1006B0008E8ACC68097E4FF07F4E07EB05450CEB28
:1006C00006560EEB0161012A08D03A1102EB043202
:1006D00013432B4333430B43836007E02B430B430C
:1006E0002103A1F580513143C36081600020F0BD3A
:1006F00001A0FFF73BBF0000444D4120436F6D70E8
:100700006C6574650000000000B5C26B89B004A17F
:10071000684606F0F7FC6846FFF728FF09B000BD01
:1007200044434D49204552524F5220434F44453A8D
:100730002578000010B503A0FFF718FF044900203A
:10074000487010BD4672616D6520456E6400000002
:100750000000002070B50446006881684FF0040670
:1007600049074FF0000516D50169490713D5C1683F
:1007700021F00401C16020684661E06B40F0020096
:10078000E06384F8256084F82450A06B00F0C2F97F
:100790002046FFF7B9FF20688168890717D50169EE
:1007A000890714D5C16821F00201C16021680220C7
:1007B0004861E06B40F00100E06384F8256084F854
:1007C0002450A06B00F0A6F92046FFF79DFF20689B
:1007D0008168C90609D50169C90606D5102141619C
:1007E00084F82450204600F07DF8206881680907CD
:1007F0000ED5016909070BD5C16821F00801C16058
:1008000021680820486184F82450204600F032F91D
:1008100020688168C9070ED00169C9070BD0C1687B
:1008200021F00101C16021680120486184F8245051
:100830002046FFF77FFF70BD10B5040003D094F889
:10084000250010B104E0012010BD204600F04CF856
:10085000022084F825002068016840F6F872914370
:100860000160616960680843D4E9031211430843D9
:10087000A1680843A1690843216A084321680A68FE
:10088000104308606068102805D1E17FE06961F3DA
:100890001F60134988612068C16841F01001C16080
:1008A0002068C16841F00801C1602068C16841F05A
:1008B0000101C1602068C16841F00401C160206885
:1008C000C16841F00201C1602068016841F48041C3
:1008D00001600020E063012084F82500002010BDA5
:1008E00000000550704700002DE9F0418046006887
:1008F0002F4986B0884257D12E48016841F0010146
:10090000016010200224002503260D278DE8F10048
:100910006946294801F0AEF94FF4CA608DE8F1004C
:100920006946264801F0A6F908208DE8F1006946DD
:10093000234801F09FF9B0028DE8F1006946214893
:1009400001F098F94FF460708DE8F10069461E4897
:1009500001F090F91E4C1D4820604FF00070C4E972
:100960000105C013C4E90350800060618000A061EC
:100970008011E061400220620420C4E909064005BC
:10098000E0622063204601F0A5F8C8F83840032053
:10099000C4F8388001F0C2FC002211464E2001F05C
:1009A0009DFC4E2001F08EFC06B0BDE8F0810000F9
:1009B00000000550343802400010024000000240A0
:1009C000000C02400018024000040240286402406B
:1009D0005C050020F8B590F82440012C1DD00124BE
:1009E00080F82440022580F8255005682E6826F0FE
:1009F00002062E6005682E680E432E60856B1A492C
:100A0000E963866B194DB5642504AB4207D20168D2
:100A1000806B283101F096F81FE00220F8BD866B4C
:100A200071648462C362426305E0C16A4908C162BD
:100A3000816A49008162C16AA942F6D2816A891E2F
:100A40008162816A0163C16A02EB8103C16A00911C
:100A50000168806B283100F015F80548016841F005
:100A6000010101600020F8BD35040008BD04000844
:100A7000000005507047006812B101610020704706
:100A8000C160FBE770B5044690F83400049D01286E
:100A900008D0012084F8340020680668360303D4A7
:100AA000122605E0022070BD0668360302D5222614
:100AB00084F83560066826F001060660206806683E
:100AC00046F480260660206803612B462046FFF727
:100AD0002FFD2068016841F0100101602068016865
:100AE00041F0080101602068016841F004010160E3
:100AF0002068416941F0800141612068016841F04E
:100B0000020101602068016841F0010101600020DC
:100B100070BD00002DE9F04104460068016821F035
:100B20000101016001F094F9054600264FF47A773F
:100B30000FE000BF01F08CF9401BB84209D93434F2
:100B4000A06940F02000A061267003206070BDE81D
:100B5000F08120680068C007ECD104F8346F0120F0
:100B600060700020F3E700002DE9F05FFB490746C5
:100B7000FA4DFB4E00684A15DFF8E093DFF8E0A37A
:100B8000DFF8D8B39302F64C483D60364FF0007C56
:100B900009F118090AF1180AABF1300B88422BD978
:100BA000EE4954392EE048453BD100BF4FF00808CC
:100BB0000AE0DFF8A88308F1300840453CD19046B0
:100BC00002E0984600E0E04611EA080F6FD00168A5
:100BD00049076CD5016821F004010160DF493868DC
:100BE000884265D9A04205D0A84203D0B04201D0C6
:100BF00048453AD1082257E0D949A831884203D95B
:100C0000D6495839096805E0D54948318842D5495F
:100C1000F8D94968A042C9D0A842C7D0B042C5D0CF
:100C2000C1E75045CBD05845C9D0DFF8348308F12F
:100C300078084045C3D0BCE7DFF8248308F13008CA
:100C40004045BED0DFF81483A8F118084045B8D05D
:100C5000DFF80C8308F190084045B2D0DFF8FC8241
:100C600008F148084045AED1ABE750451CD0584587
:100C70001AD0BB497831884216D0B8493031884201
:100C800012D0B749303188420BD0B4491839884264
:100C900007D0B3499031884203D0B04948318842E7
:100CA00001D11A4600E06246AC484C382FE099E08A
:100CB000AB49A83188422CD9A04205D0A84203D024
:100CC000B04201D0484501D108221EE050451CD059
:100CD00058451AD0A2497831884216D09F49303100
:100CE000884212D09E49303188420BD09B49183936
:100CF000884207D09A499031884203D097494831B9
:100D0000884201D11A4600E0624694485038026099
:100D10005AE09349483188422BD9A04205D0A842D5
:100D200003D0B04201D0484501D108221EE0504511
:100D30001CD058451AD08A497831884216D0874944
:100D40003031884212D08649303188420BD08349F5
:100D50001839884207D082499031884203D07F49B0
:100D60004831884201D11A4600E062467D48C2609F
:100D70002AE0A04205D0A84203D0B04201D04845A5
:100D800001D108221EE050451CD058451AD07449A4
:100D90007831884216D071493031884212D070497A
:100DA000303188420BD06D491839884207D06C49E0
:100DB0009031884203D069494831884201D11A46AE
:100DC00000E0624667488260F86C40F00100F86419
:100DD000042087F83500002087F83400B96C09B189
:100DE00038468847604A5D493868D3114FF4800C13
:100DF000884237D9594954393AE0484547D1904655
:100E00000CE0DFF8588108F1300840454AD100BFB6
:100E10004FF0400802E0984600E0E04611EA080F73
:100E20006FD0416909066CD5416921F080014161AB
:100E30004A493868884265D9A0425FD0A8425DD04F
:100E4000B0425BD0484559D0504509D0584507D0ED
:100E500043497831884203D04049303188423AD101
:100E600040224BE03E49A831884203D93B495839DA
:100E7000096805E03A49483188423A49F8D9496851
:100E8000A042BCD0A842BAD0B042B8D0B5E75045D5
:100E9000BED05845BCD0DFF8C88008F1780840457E
:100EA000B6D0AEE7DFF8B88008F130084045B2D0E0
:100EB000DFF8A880A8F118084045ACD0DFF8A08082
:100EC00008F190084045A6D0DFF8908008F1480866
:100ED0004045A2D19FE72249303188420BD01F49BB
:100EE0001839884207D01E499031884203D01B49E7
:100EF0004831884201D11A4600E0624617484C3812
:100F000036E0A1E01649A831884233D9A0422ED05C
:100F1000A8422CD0B0422AD0484528D0504509D00C
:100F2000584507D00E497831884203D00B493031FB
:100F3000884201D140221AE00949303188420BD061
:100F400006491839884207D005499031884203D0B4
:100F500002494831884209D11A4608E058640240E3
:100F60001060024000600240010080006246F948C3
:100F700002605BE0F84988422CD9A04226D0A84202
:100F800024D0B04222D0484520D0504509D0584501
:100F900007D0F1493031884203D0EE498031884290
:100FA00001D1402212E0EC49183988420BD0E949BE
:100FB0003831884207D0E8494831884203D0E549B2
:100FC0009831884201D11A4600E06246E24858381A
:100FD000C2602BE0A04226D0A84224D0B04222D04A
:100FE000484520D0504509D0584507D0DA4930311E
:100FF000884203D0D7498031884201D1402212E093
:10100000D549183988420BD0D2493831884207D0A7
:10101000D1494831884203D0CE499831884201D124
:101020001A4600E06246CC4858388260F86C40F0BE
:101030000200F864042087F83500002087F83400A7
:10104000B96C09B138468847C249C44A386850313A
:1010500053114FF4807C4FF0807E884236D9BD49D1
:10106000091F39E0484545D190460AE0DFF8E4829F
:1010700008F18008404548D1E04602E0984600E08B
:10108000F04611EA080F6FD0016889076CD5016836
:1010900021F002010160AF4938685031884264D9BB
:1010A000A0425ED0A8425CD0B0425AD0484558D049
:1010B000504509D0584507D0A7493031884203D060
:1010C000A4498031884239D162464AE0A249603160
:1010D000884203D99F490839096804E09E4988423B
:1010E0009F49F9D94968A042BED0A842BCD0B042BD
:1010F000BAD0B7E75045BFD05845BDD0DFF85882C9
:1011000008F130084045B7D0B0E7DFF84C82A8F1CD
:1011100018084045B2D0DFF83C8208F13808404555
:10112000ACD0DFF8348208F148084045A6D0DFF89B
:10113000248208F198084045A2D19FE786491839D2
:1011400088420BD083493831884207D082494831E0
:10115000884203D07F499831884201D11A4600E085
:1011600072467C48001D2EE097E07B496031884242
:101170002BD9A04226D0A84224D0B04222D0484544
:1011800020D0504509D0584507D0734930318842A6
:1011900003D070498031884201D1624612E06E4925
:1011A000183988420BD06B493831884207D06A49D8
:1011B0004831884203D067499831884201D11A46A4
:1011C00000E072466348026059E0634988422BD9C7
:1011D000A04226D0A84224D0B04222D0484520D0F8
:1011E000504509D0584507D05B493031884203D07B
:1011F00058498031884201D1624612E05649183977
:1012000088420BD053493831884207D0524948317F
:10121000884203D04F499831884201D11A4600E0F4
:1012200072464F48C2602AE0A04226D0A84224D08D
:10123000B04222D0484520D0504509D0584507D06B
:1012400045493031884203D042498031884201D13A
:10125000624612E04049183988420BD03D49383186
:10126000884207D03C494831884203D039499831F7
:10127000884201D11A4600E0724639488260F86C13
:1012800040F00400F864042087F83500002087F857
:101290003400B96C09B138468847DFF8B8C04FF45C
:1012A000806138680CF1500C8A020B04604534D917
:1012B000DFF8A0C0ACF1040C39E0484552D100BFC2
:1012C0004FF010080AE0DFF88C8008F180084045F4
:1012D00051D1884602E0904600E098461CEA080F8B
:1012E0007ED0D0F800C05FEA0C7C79D5D0F800C081
:1012F0005FEA4C384FF0310C73D5DFF8588008F1B5
:101300005008404575D9A04205D0A84203D0B0424C
:1013100001D0484546D1102168E0DFF83CC00CF10F
:10132000600C604506D9DFF82CC0ACF1080CDCF885
:1013300000C007E0DFF820C06045DFF824C0F6D920
:10134000DCF804C0A042BBD0A842B9D0B042B7D0AC
:10135000B3E70000086402405860024004008000C7
:10136000006002405045B4D05845B2D0DFF84C84FC
:101370004045AED0A7E7DFF84484A8F148084045CF
:10138000A9D0DFF83C844045A5D0DFF8308408F1CF
:10139000180840459FD0DFF8288408F160084045D0
:1013A0009BD198E7504521D058451FD0DFF80C84D9
:1013B00040451BD0DFF8088408F14808404515D0A7
:1013C000FE49483988420AD0FD49884207D0FB4986
:1013D0001831884203D0FA496031884205D102E0D1
:1013E000ADE0BBE005E0114600E01946F4483438B2
:1013F00031E0DFF8C88308F1300840452DD9A0421C
:1014000005D0A84203D0B04201D0484501D11021F7
:101410001FE050451DD058451BD0DFF8A083404544
:1014200017D0DFF89C8308F14808404511D0E34904
:10143000483988420AD0E249884207D0DF4918314A
:10144000884203D0DE496031884201D1114600E074
:101450001946DB483838016060E0DFF86083A8F1A6
:10146000300840452DD9A04205D0A84203D0B04253
:1014700001D0484501D110211FE050451DD05845ED
:101480001BD0DFF83883404517D0DFF8348308F1EC
:101490004808404511D0C949483988420AD0C8494E
:1014A000884207D0C5491831884203D0C449603109
:1014B000884201D1114600E01946C0488838C16011
:1014C0002CE0A04205D0A84203D0B04201D048454C
:1014D00001D110211FE050451DD058451BD0DFF829
:1014E000DC82404517D0DFF8D88208F14808404533
:1014F00011D0B249483988420AD0B149884207D050
:10150000AE491831884203D0AD496031884201D1DB
:10151000114600E01946A94888388160386801689A
:10152000090302D487F835C005E00068000302D53E
:10153000412087F83500396C09B138468847DFF813
:1015400080C24FF4006138680CF1180C8A024FF029
:10155000006E604570D99A4B3C3B00E1D0F80080AA
:101560005FEAC85805D4D0F8008028F00808C0F811
:101570000080DFF84C82386808F1180840452CD903
:10158000A04205D0A84203D0B04201D0484501D1C5
:1015900010211FE050451DD058451BD0DFF81C829C
:1015A000404517D0DFF8188208F14808404511D0AF
:1015B0008249483988420AD08149884207D07F4908
:1015C0001831884203D07E496031884201D11146EA
:1015D00000E019467A48343832E0DFF8E08108F15B
:1015E000300840452ED9A04205D0A84203D0B042D1
:1015F00001D0484501D1102120E050451ED058456A
:101600001CD0DFF8B881404518D0DFF8B48108F16C
:101610004808404512D06949483988420AD068498B
:10162000884207D065491831884203D06449603147
:10163000884202D1114601E08BE0194660483838F3
:1016400001606FE7DFF87481A8F1300840452DD9BB
:10165000A04205D0A84203D0B04201D0484501D1F4
:1016600010211FE050451DD058451BD0DFF84C819C
:10167000404517D0DFF8488108F14808404511D0AF
:101680004E49483988420AD04D49884207D04B49D3
:101690001831884203D04A496031884201D111464D
:1016A00000E0194645488838C1603BE7A04205D0B4
:1016B000A84203D0B04201D0484501D110211FE01B
:1016C00050451DD058451BD0DFF8F080404517D05D
:1016D000DFF8EC8008F14808404511D03749483917
:1016E00088420AD03649884207D0344918318842A6
:1016F00003D033496031884201D1114600E01946D8
:101700002E48883881600DE7484537D14FF02008D2
:101710000AE0DFF8AC8008F14808404537D1884638
:1017200002E0904600E0F04613EA080F7AD0036822
:10173000DB0677D503685B0375D5604564D9A042A5
:1017400005D0A84203D0B04201D048453CD1202169
:1017500057E01A4B3033984203D9194B403B1B6872
:1017600005E0164B303B9842164BF8D95B68A04217
:10177000CCD0A842CAD0B042C8D0C5E75045CED0E0
:101780005845CCD0DFF834804045C8D0C1E7DFF8F9
:10179000348008F140084045C3D0DFF8248040453C
:1017A000BFD0DFF8188008F118084045B9D0DFF83D
:1017B000108008F160084045B5D1B2E7886002406A
:1017C000406402400060024050451AD0584518D08D
:1017D000BE4B984215D0BE4B984212D0BB494839F7
:1017E00088420BD0BA494839884207D0B7491831E6
:1017F000884203D0B6491831884201D1114600E031
:101800007146B3487C382EE0B04B303398422CD927
:10181000A04205D0A84203D0B04201D0484503D130
:1018200020211EE0FBE089E050451AD0584518D031
:10183000A64B984215D0A64B984212D0A3494839DE
:1018400088420BD0A2494839884207D09F491831B5
:10185000884203D09E491831884201D1114600E0E8
:1018600071469B488038016058E0984B303B984265
:101870002AD9A04205D0A84203D0B04201D04845A1
:1018800001D120211CE050451AD0584518D08F4B6B
:10189000984215D08E4B984212D08C4948398842D4
:1018A0000BD08B494839884207D088491831884283
:1018B00003D087491831884201D1114600E07146B2
:1018C00082488838C16029E0A04205D0A84203D0F0
:1018D000B04201D0484501D120211CE050451AD02A
:1018E000584518D0794B984215D0794B984212D070
:1018F0007649483988420BD075494839884207D023
:1019000072491831884203D071491831884201D197
:10191000114600E071466D4888388160386801687A
:10192000090301D4796C03E00068000377D5F96BF3
:10193000002974D03846BDE8F05F08470368DB052E
:1019400003D4036823F0100303603868604529D985
:10195000A04205D0A84203D0B04201D0484501D1F1
:1019600020211CE050451AD0584518D0574B9842BA
:1019700015D0574B984212D05449483988420BD061
:1019800053494839884207D050491831884203D01A
:101990004F491831884201D1114600E071464C4848
:1019A0007C382CE0494B303398422AD9A04205D0EC
:1019B000A84203D0B04201D0484501D120211CE00B
:1019C00050451AD0584518D0404B984215D0404B3E
:1019D000984212D03D49483988420BD03C49483999
:1019E000884207D039491831884203D03849183124
:1019F000884201D1114600E07146354880380160C7
:101A000059E0324B303B98422BD9A04205D0A84236
:101A100003D0B04201D0484502D120211DE053E05F
:101A200050451AD0584518D0284B984215D0284B0D
:101A3000984212D02549483988420BD02449483968
:101A4000884207D021491831884203D020491831F3
:101A5000884201D1114600E071461C488838C160B7
:101A600029E0A04205D0A84203D0B04201D04845A9
:101A700001D120211CE050451AD0584518D0134BF5
:101A8000984215D0124B984212D0104948398842DA
:101A90000BD00F494839884207D00C491831884289
:101AA00003D00B491831884201D1114600E071463C
:101AB000064888388160F86CF864112087F8350092
:101AC000002087F8340032E7BDE8F09F88600240CC
:101AD0008864024070B5D0B10221446A80F83510A4
:101AE00003681A6816490A40D0E901152943D0E96C
:101AF0000356354329434569294385692943C56907
:101B00002943056A29431143042C02D005E0012032
:101B100070BDD0E90B242243114319600368596951
:101B2000426A21F007011143042A01D1826A11435C
:101B300059610021C164012180F83510002070BD79
:101B40003F8014F070B5044690F8340001282DD081
:101B5000012084F83400022084F8350020680568EC
:101B600025F0010505602046FEF7F1FC20680168BC
:101B700041F0100101602068016841F00801016036
:101B80002068016841F0040101602068416941F06A
:101B9000800141612068016841F002010160206814
:101BA000016841F001010160002070BD022070BD9C
:101BB00031B500F04DF9044600F04AF90099001BD8
:101BC0008842F9D338BD00002DE9F041214886B0A4
:101BD000016800293BD14FF00108C0F800801E4881
:101BE000016841F0010101604FF63F000224002529
:101BF00003260C278DE8F1006946184800F03AF8F2
:101C000001AACDF80080F0C26946154800F032F80C
:101C100048F233108DE8F1006946124800F02AF8C6
:101C20004FF683708DE8F10069460F4800F022F806
:101C30004CF203708DE8F10069460C4800F01AF888
:101C400060208DE8F1006946094800F013F806B0FD
:101C5000BDE8F0810800002038380240001402403E
:101C6000000802400018024000100240000C024030
:101C7000000402402DE9F04FDFF88CB100224FF054
:101C800001084FF0030A4FF00F090BF1040E00BFDB
:101C90000B6808FA02F42340A34271D14D68022D6B
:101CA00001D0122D0ED1D50800EB850CDCF82050A8
:101CB0005607F70E09FA07F6B5430E69BE402E43E4
:101CC000CCF82060066855000F790AFA05FC07F089
:101CD000030726EA0C06AF40374307604E68012E23
:101CE00005D0022E03D0112E01D0122E10D18668FD
:101CF000CF6826EA0C0607FA05F73743876046687F
:101D0000A6430C79C4F3001404FA02F4344344608B
:101D1000C4688E6824EA0C0406FA05F62643C660F9
:101D20004C68E4006AD5394C256845F48045256047
:101D3000374C22F003052E19346895072F0F09FA46
:101D400007F5AC43334DA84201D100252EE0324DBA
:101D5000A84201D1012529E0304DA84201D1022538
:101D600024E02F4DA84201D103251FE02D4DA842AC
:101D700001D104251AE02C4DA84202D1052515E019
:101D80003CE02A4DA84201D106250FE0284DA8428B
:101D900001D107250AE0274DA84201D1082505E019
:101DA000254DA84201D1092500E00A2505FA07F5CD
:101DB00025433560DBF800405D464E689C43F603E2
:101DC00000D51C432C60DEF8004075464E689C43ED
:101DD000B60300D51C432C600B4D08352C684E68AB
:101DE0009C43F60200D51C432C60074D0C352C6833
:101DF0004E689C43B60200D51C432C60521C102A2E
:101E0000FFF446AFBDE8F08F003C0140443802408B
:101E1000083801400000024000040240000802406F
:101E2000000C024000100240001402400018024062
:101E3000001C0240002002400024024042694A4047
:101E4000426170470AB101837047418370470000C7
:101E50000148006870470000C000002090F836007C
:101E6000704790F83500704710B5040003D094F81F
:101E7000350010B104E0012010BD204600F0C0F98B
:101E8000022084F835002068016821F0010101601A
:101E900000F082FF30492268B0FBF1F151602F4A17
:101EA0006368934206D94FF4967359434FF47A739B
:101EB000B1FBF3F12368491C19626168914208D8AB
:101EC0004900B0FBF1F0C0F30B01042918D2042043
:101ED00016E0A36893B301EBC10202EB0112B0FB61
:101EE000F2F242F4804212052FD043B301EBC1025B
:101EF00002EB0111B0FBF1F040F4804040F40040EF
:101F00002168C861D4E90701084321680860D4E961
:101F10000310084321688860D4E90501084321685B
:101F2000C8602068016841F001010160002084F868
:101F30003600012084F83500002010BD00E006E0E6
:101F400001EB4102B0FBF2F2CDE70120D8E701EB53
:101F50004101B0FBF1F0D1E740420F00A086010043
:101F60002DE9F05F044690F83500DDF828B01E46F4
:101F7000154601286FD1F5B1EEB120688069C043E4
:101F8000800768D594F83400012864D04FF0010828
:101F900084F83480222084F83500002784F83670D5
:101FA0005A46204602F08AF840B194F8360084F888
:101FB000347004287CD10120BDE8F09FDFF858A1DF
:101FC000012E1CD02068DFF85091022E0168A9F183
:101FD0003C0929D041F48061016020684169806931
:101FE000032E66D8012E16D0022E28D05B46002282
:101FF0004946204602F0FCF8002859D138E0206814
:10200000016821F48061016020684169816901688B
:1020100041F4007101605B4600225146204602F007
:10202000E7F800286DD112E021F48061016020689A
:10203000016841F4006101602068416980695B4684
:1020400000224946204602F0D3F888BB04E020680D
:102050000069287049E05CE02068016841F4007183
:1020600001602068006928702068006968703CE0A1
:102070002068016821F4806101602068006905F82A
:10208000010B761EB6B25B4600224946204602F09E
:10209000AFF868B92068016841F4007101602068F8
:1020A00000692870206800696870AD1CB61E18E0D1
:1020B00027E05B4600225146204602F099F800BB1B
:1020C0002068006905F8010B2068A6F10106B6B288
:1020D00041696FEA0101490704D4006905F8010B61
:1020E000761EB6B2002E7FF47BAF2068016821F423
:1020F000006101605B4601220849204602F078F841
:1021000008B1032058E7343484F801802770002098
:1021100052E7022050E700004000010002001000DA
:102120002DE9F047044690F83500DDF820A01D4663
:10213000164601285ED1F6B1EDB120688069C04332
:10214000800757D594F83400012853D04FF0010888
:1021500084F83480122084F83500002784F8367023
:102160005246204602F008F840B194F8360084F850
:102170003470042836D10120BDE8F0872068416919
:102180008069DFF87490534600224946204602F0E9
:102190002FF838BB216816F8010B08612068A5F1FB
:1021A0000105ADB241696FEA0101490705D435B1B6
:1021B00016F8011B01616D1EADB2002DE3D153462F
:1021C00000224946204602F013F858B920680168F9
:1021D00041F400710160534601220849204602F093
:1021E00007F808B10320C7E7343484F8018027706A
:1021F0000020C1E70220BFE78000010002001000BC
:1022000000B500680C4985B0884213D10B480168BD
:1022100041F4800101604FF4406000901220019071
:102220000020029003200390042004906946044893
:10223000FFF720FD05B000BD0058004040380240C7
:102240000004024002480168491C01607047000018
:10225000C00000200B4810B5016841F40071016016
:10226000016841F480610160016841F4807101609E
:10227000032000F053F8002000F006F800F015F8F5
:10228000002010BD003C024010B5044600F06AFD7D
:102290004FF47A71B0FBF1F001F03AFE00222146D2
:1022A000501E00F01BF8002010BD704700F01F0208
:1022B0000121914040094FF0E02202EB8000C0F87C
:1022C0008012704700F01F020121914040094FF039
:1022D000E02202EB8000C0F800117047F0B40E4B12
:1022E0001B680C46C3F30223C3F10705042D00D974
:1022F0000425191D072901D2002300E0DB1E012659
:1023000006FA05F1491E214099409E40761E16406E
:102310003143F0BC02F06CBA0CED00E0064900F06D
:10232000070208684FF6FF03184040EA0220034AFC
:1023300010430860704700000CED00E00000FA0553
:102340000068416200207047F0B500680023446ACD
:1023500031B1856A4FF4827604EB15444D1E0AE0D4
:1023600044EA024181620FE006EB8307C7595B1C18
:1023700004EB1744DBB2AB42F6DB4FF4807303EBA4
:10238000810144EA024242500020F0BDD0F8AC0383
:1023900003F0F0BEC1EBC10200EB8202D0F8AC0347
:1023A000D26B03F062BEC1EBC10200EB8202D0F837
:1023B000AC03D2F8E02103F0A8BED0F8AC0303F0E0
:1023C000DBBE10B504460A460B0601F07F00C0EBE9
:1023D000C00104EB810101D5303101E001F5EA7162
:1023E0000870D009487094F87803012809D00120BA
:1023F00084F87803206804F083FA002084F87803D6
:1024000010BD022010BD70B50A460446090602F050
:102410007F0005D5C0EBC00104EB8101303105E040
:10242000C2EBC20104EB810101F5EA7100258D7058
:102430000870D009487094F87803012809D0012069
:1024400084F87803206804F017FC84F8785300209F
:1024500070BD022070BD10B5044690F878030128C5
:102460000AD0012084F87803080607D501F07F011F
:10247000206804F097FD04E0022010BD206804F0FD
:1024800081FD002084F8780310BD01F07F01C1EBCD
:10249000C10100EB8100B0F8EC0180B2704770B56B
:1024A00004460D460E0601F07F00C0EBC00104EBB0
:1024B000810101D5303101E001F5EA71ED090870C3
:1024C0004D708A60CB7000D0C8800025022B00D1EF
:1024D0000D7194F87803012809D0012084F878035D
:1024E000206804F05DF9284684F8785370BD022016
:1024F00070BD70B504460E4601F07F00C0EBC00110
:1025000004EB810101F5EA710025CA60C1E90535D6
:102510004D7008702069012800D10A6194F8780391
:1025200001280CD0012084F878037006227C2068F2
:1025300007D004F007FC84F87853002070BD022017
:1025400070BD04F0D9FAF6E770B50D4604460906E9
:1025500005F07F0005D5C0EBC00104EB81013031EF
:1025600005E0C5EBC50104EB810101F5EA7101222B
:102570008A700870E809487094F87803012807D039
:1025800084F87823206804F0ABFB680602D007E0EB
:10259000022070BD217C04F55F72206804F050FBBE
:1025A000002084F8780370BD70B504460E4601F033
:1025B0007F00C0EBC00104EB810130310025CA600F
:1025C000C1E9053501234B7008702069012800D14D
:1025D0000A6194F8780301280CD084F878337006E7
:1025E000227C206808D004F0ADFB00BF84F878534B
:1025F000002070BD022070BD04F07EFAF6E70000F6
:102600002DE9F84F044600680025064604F0FAFC60
:10261000002871D1206804F01EFD00286CD02068CD
:1026200004F019FD80074FF0020A02D52168C1F8B5
:1026300014A0206804F00FFD010304F55F704FF053
:10264000080900904BD5206804F0E7FC074644E0F9
:10265000F80740D0E9B2206804F0F5FC8046C007D6
:1026600027D006EB45110120C1F8080B206901288D
:102670000FD1C5EBC50004EB800000F5EE70D1F87A
:10268000101B0268C1F31201511A01614168114423
:102690004160E9B22046FFF786FE2069012808D193
:1026A0003DB9D4F8E80120B920680121009A04F06E
:1026B000C7FA5FEA087006D5204600F057FA06EB25
:1026C0004511C1F8089B5FEAC86004D506EB4511C7
:1026D0001020C1F8080B6D1C7F08002FB8D12068AE
:1026E00004F0B9FC40034FF0400B5ED5206804F0C5
:1026F0008DFC0746002556E077E1F80751D0E9B296
:10270000206804F091FC8046C00726D00122D6F84C
:10271000343802FA05F040F63401834306EB4510E5
:102720008B51C0F808292069012807D1C5EBC500E5
:1027300004EB8000D0E90E211144C163E9B22046C8
:10274000FFF728FE2069012807D135B9606C20B950
:1027500020680121009A04F073FA5FEA087003D53B
:1027600006EB4511C1F808995FEAC86004D506EB8D
:1027700045111020C1F808095FEA486003D506EB4F
:102780004511C1F808B95FEA887003D506EB451119
:10279000C1F808A95FEA086003D52946204602F07F
:1027A00043F86D1C7F08002FA7D1206804F053FC6C
:1027B00000280DDAD6F8041840F6040021F00101D3
:1027C0008151204600F0B8F920684FF00041416186
:1027D000206804F040FC00050AD5D6F80808C007B8
:1027E00002D0204600F0DEF920684FF4006141611C
:1027F000206804F030FCC0044FD5D6F8041840F629
:10280000040021F0010181510021206804F0CAFB7D
:102810000020FF2107E000BF06EB4012C2F80819B4
:10282000C2F8081B401C62688242F5D84FF0FF30A6
:10283000C6F81808D6F81C1840F61C0041F0011123
:102840008151A06A58B1D6F8841840F6840041F04E
:102850000B01815106F64400D6F844180AE0D6F878
:10286000141840F6140041F00B018151D6F81018ED
:1028700006F5016041F00B010160D6F800184FF435
:10288000006021F4FE618151217C2068009A04F0EF
:10289000D7F921684FF480504861206804F0DBFBD1
:1028A00080041BD5206803F0BDFF2068C16821F4B7
:1028B0007051C160206804F087FB50B30320C4F856
:1028C00014B0E0602068C16841F4A051C1602046A6
:1028D00000F022F921684FF400504861206804F0AC
:1028E000BAFBC00640D52068816921F010018161E2
:1028F000D6F8208008F00F00C0EBC00004EB800782
:10290000C8F3434007F5EA7702280CD006281CD00C
:1029100025E00020E0604FF4007060612068C1682D
:1029200041F41051D2E747F6F07118EA010F16D0C2
:10293000C8F30A1290463046F96804F090FBF86834
:102940004044F860B869404408E0082230460099E5
:1029500004F085FBB969C8F30A100844B86120681F
:10296000816941F010018161206804F074FB000767
:1029700005D5204600F0E4F82168C1F814902068DD
:1029800004F069FBC00207D5E9B2204600F02FF839
:1029900021684FF480104861206804F05CFB8002DD
:1029A00007D5E9B2204600F026F821684FF4001060
:1029B0004861206804F04FFB400006D52046FFF731
:1029C000E5FC21684FF080404861206804F043FB3B
:1029D00040070AD520684568680702D52046FFF7FA
:1029E000ECFC2068416829434160BDE8F88FD0F8CD
:1029F000AC0303F015BCD0F8AC0303F013BCF0B586
:102A000089B004004FF0000554D0032084F8790306
:102A1000204600F051F8206804F068F804F1100135
:102A200020220F466846FDF70EFC94E80F0003F0E5
:102A300015FF0021206804F022FB01260020C5EBD1
:102A4000C50104EB810130314E700D70CD80C8702E
:102A50008860C8606D1C48610F2DF0D300214FF4D1
:102A60008273C1EBC10204EB820203EB810582F8A1
:102A7000D50182F8D411D18682F8D701C2F8DC01E1
:102A8000C2F8E001C2F8E80122685051491C0F2940
:102A9000E7D3202239466846FDF7D5FB94E80F00BE
:102AA00003F080FF84F87963206803F06DFF002055
:102AB00009B0F0BD0120FBE700B5006885B0B0F1BA
:102AC000A04F23D11248016841F0800101601048F5
:102AD0001030016841F4804101604FF4C050009013
:102AE000022001900020029003900A200490694681
:102AF0000848FFF7BFF80320FFF710FC002211463B
:102B00004320FFF7EBFB4320FFF7DCFB05B000BDE4
:102B1000343802400000024010B50446C06801216C
:102B200000B90021D4F8AC0303F0C0FBD4F8AC0327
:102B3000BDE8104003F089BBD0F8AC0303F0A4BBA0
:102B4000D0F8AC0303F0A6BB10B5044690F87803A8
:102B5000012809D0012084F87803206804F0A5FA40
:102B6000002084F8780310BD022010BDD0F8AC23FB
:102B700000F55F71104603F0A3BB10B5044690F852
:102B8000780301280CD0012084F87803206803F032
:102B9000EEFE206804F0F0F9002084F8780310BD00
:102BA000022010BDD0F8AC0303F0C5BB2DE9F047FF
:102BB000DFF8A8A105460E46DAF80000684C00F0E0
:102BC0000F016748083406F0FF0941F28838B14226
:102BD00054D28AF80090DAF8001001F00F01B142E7
:102BE0006FD12978890705D52168AA6821F0F001FD
:102BF000114321602978C90728D06968012914D0B8
:102C00000068022914D0800700285ADA206820F0D2
:102C1000030008432060FFF71BF906466868012897
:102C20000ED00228474618D023E000688003EBE767
:102C30008001E9E7FFF70CF9801BB84201D964E095
:102C400047462068C0F381000128F3D16EE000BF41
:102C5000FFF7FEF8801BB84257D82068C0F3810008
:102C60000228F5D162E000BFFFF7F2F8801BB842FE
:102C70004BD8206810F00C0FF6D157E0297889075F
:102C800005D52168AA6821F0F00111432160297857
:102C9000C90741D06968012914D00068022914D0FD
:102CA0008007002840DA206820F0030008432060F5
:102CB000FFF7CEF80746686801280ED0022818D022
:102CC00026E031E000688003EBE78001E9E700BF20
:102CD000FFF7BEF8C11B414517D82068C0F381003B
:102CE0000128F5D118E000BFFFF7B2F8C11B41453C
:102CF0000BD82068C0F381000228F5D10CE000BF9A
:102D0000FFF7A6F8C11B414502D90320BDE8F087B3
:102D1000206810F00C0FF3D18AF80090DAF8000068
:102D200000F00F00B04201D00120EFE72878400703
:102D300005D52068E96820F4E05008432060287831
:102D4000000706D52068296920F4604040EAC100E8
:102D500020600020FFF798FA0020D7E7003C0240EF
:102D60000038024000B500F043F808490968F02235
:102D700092FAA2F201F0F001B2FA82F2D140044AD2
:102D8000515CC8400349086000BD0000083802409B
:102D9000807B0008AC00002000B5FFF7E3FF074987
:102DA00009684FF4E05292FAA2F201F4E051B2FA4B
:102DB00082F2D140024A515CC84000BD083802404E
:102DC000807B000800B5FFF7CDFF074909684FF485
:102DD000604292FAA2F201F46041B2FA82F2D1406A
:102DE000024A515CC84000BD08380240807B0008A0
:102DF00030B51D48006810F00C011C481AD0441072
:102E0000042916D0082915D11749091F0A6802F0AC
:102E10003F030A6802F480054FF4800292FAA2F29E
:102E2000B2FA82F2D54047F6C07204D0B4FBF3F098
:102E300003E0204630BDB0FBF3F00B680968134097
:102E400092FAA2F2B2FA82F2D34058434FF44032DF
:102E500092FAA2F201F44031B2FA82F2D140491C56
:102E60004900B0FBF1F030BD083802400024F40006
:102E70002DE9F84F04460078DFF818A3C64DC007C7
:102E80004FF000064DD0DAF800105046C1F3810132
:102E9000012908D00068C0F3810002280AD1281D4A
:102EA0000068400206D5286880033AD5606801288A
:102EB00073D136E0DFF8E09209F1020989F8006089
:102EC000FEF7C6FF804641F2883705E0FEF7C0FFF7
:102ED000A0EB0800B8427DD828688003F6D420799A
:102EE00089F800006068012803D0FEF7B1FF804632
:102EF00014E0FEF7ADFF804606E000BFFEF7A8FF36
:102F0000A0EB0800B842E6D828688003F6D508E0B0
:102F1000FEF79EFFA0EB0800B842DCD828688003CB
:102F2000F6D420789D4F80074FF0010B45D5DAF895
:102F30000010504611F00C0F4FF0F80909D000684E
:102F4000C0F3810002280BD19248001F00684002A4
:102F500006D42868800714D5E0680128A8D110E0BD
:102F6000E068D8B1C7F800B0FEF772FF804605E010
:102F7000FEF76EFFA0EB08006428ACD82868800735
:102F8000F6D5286899FAA9F22169B2FA82F220F0FE
:102F9000F8009140084328600FE0F8E03E60FEF73B
:102FA00057FF804606E000BFFEF752FFA0EB080087
:102FB000642890D828688007F6D42078000729D59F
:102FC000DFF8D0917648616909F16C0999B1C0F8D0
:102FD00000B000E087E0FEF73BFF804606E000BF60
:102FE000FEF736FFA0EB080064287CD8D9F8000073
:102FF0008007F5D50EE00660FEF72AFF804605E063
:10300000FEF726FFA0EB080064286CD8D9F8000072
:103010008007F5D42078400756D55E4838300168DF
:1030200041F080510160DFF87C91D9F8001041F443
:103030008071C9F80010FEF70BFF804606E000BF64
:10304000FEF706FFA0EB080064284CD8D9F8000072
:10305000C005F5D5DFF83C8108F1680888F8006004
:10306000FEF7F6FE41F28839009005E0FEF7F0FE2B
:103070000099411A494536D8D8F800008007F5D4A0
:10308000207A88F80000A068012803D0FEF7E0FE4F
:10309000009015E0FEF7DCFE009005E0FEF7D8FE9C
:1030A0000099411A49456AD8D8F800008007F5D53B
:1030B0000AE000BFFEF7CCFE0099411A49455ED8F0
:1030C000D8F800008007F5D4A069E0B3DAF8001062
:1030D000C1F3810102295AD002283E6604D0FEF7CE
:1030E000B7FE04464EE04AE0FEF7B2FE064604E0B4
:1030F000FEF7AEFE801B642841D828688001F7D413
:10310000D4E90710084347F6C07292FAA2F2616A46
:10311000B2FA82F29140A26A4FF0FF3303EB5202FF
:103120004FF4403393FAA3F3B3FA83F39A40114375
:1031300008434FF0706292FAA2F2E16AB2FA82F2A8
:103140009140084300E020E040F000511148001F8A
:103150000160C7F860B0FEF77BFE044605E000BFE3
:10316000FEF776FE001B642809D828688001F7D591
:103170000BE000BFFEF76CFE001B642802D90320A1
:10318000BDE8F88F28688001F4D40020F8E701201A
:10319000F6E70000083802400038024000004742CD
:1031A000800E47420070004070B50D46040003D009
:1031B00094F82C0010B104E0012070BD204600F00E
:1031C00011F8022084F82C00211D2068FDF716FA62
:1031D000D4E900022946FDF759FA012084F82C00B1
:1031E000002070BDFEF7F0BC10B5044690F82C002E
:1031F000022809D0022084F82C002068FDF71BFA71
:10320000012084F82C00002010BD000070B5044699
:1032100090F82C000D4602280DD0022084F82C00D6
:103220002068FDF70EFA2868022805D05FF001003B
:1032300084F82C00002070BD0520F9E710B590B08F
:103240000C46694600F0DFFA00282ED10098C0F342
:10325000811020700098C0F34010607000206080E2
:1032600003996288C9B20A436280606061686160E4
:103270006168616007996268C9B20A43626008992F
:103280002172099961720A99C1F30311A172A08197
:103290000C99A289C9B20A43A2810D99C1F3850193
:1032A000A1730D9901F00301E17310B010BD10B5C9
:1032B0000446808C86B0000400900D20019000210F
:1032C0004020CDE90201000104906946206801F028
:1032D000E6FD0D21204601F037FE68B9002001F01F
:1032E000BDFDC0F34320042804D0FF2804D00120F2
:1032F00006B010BD0020FBE70220F9E72DE9F047FA
:1033000090F8202081F85620828CA1F85420826AFF
:103310000027120E93090B70C2F383034B7002F067
:1033200003028A70826A120CCA70028D120A0A7134
:1033300090F828204A71C26A4FF6FF7A120E0AEA04
:103340000212CA80C26ACB88C2F3074243EA121350
:10335000CB8002F00F020A72828DC2F30723DA09D2
:103360004A72C3F380128A72C3F34012CA72C3F363
:1033700000120A7300224A73046A4FF00109002CFC
:103380007ED0012CFCD0022C7BD02927C3F38014E3
:103390004C769B065B0E8B7610F8303F8C7E44EAB1
:1033A000D3148C761C3103F07F0301F8013C436891
:1033B0001B0EDC090C70C3F341144C70C3F3820480
:1033C0008C709B071B0FCB704368CC78C3F307430B
:1033D00044EA9314CC70C3F340140C714A7103F0A7
:1033E00001028A718288C2F30722D309CB71C2F32A
:1033F00080130B72C2F340134B72C2F300138B7233
:10340000C2F38103CB7202F003020A7302795208FD
:103410004A734B4681F80E908268120E0A748268D5
:10342000C2F307420AEA02224A820289C2F307244F
:103430004A8A22434A82027A12064A61C2684C6969
:10344000120E44EA02424A61C2684C69C2F3074262
:1034500044EA02224A6182894C69C2F3072214437A
:103460004C61027B0A7650F8102F120E4A760268E1
:10347000C2F307421206CA610288C2F3072201E0C2
:1034800028E06AE0CC6944EA0242CA610278CC6969
:1034900044EA0222CA614268CC6944EA1264CC61FF
:1034A000426891F82040C2F3074244EA121481F8BE
:1034B00020401207120D4A848288C2F307244A8CE6
:1034C00022434A840079400801F8240F4B703846A3
:1034D000BDE8F0879B071B0D0B6190F82C300C6941
:1034E00044EA83030B61036B0C691B0E44EA9314DB
:1034F0000C61C3F3C2040C7503F007034B75036B37
:10350000C3F307435C098C75C3F38204CC759B0736
:103510005B0F0B76038E0C7EC3F3072344EAD314B0
:103520000C760C690E7E641CB61C09FA06F5A4FB29
:1035300005684FEAE57C02FB058504FB0C5591F814
:1035400008C009FA0CF4A6FB04C80C6505FB04844A
:1035500006FB0244C1E912C418E790F82C309B0620
:103560009B0A0B61036B0C691B0E44EA03230B617E
:10357000036B0C69C3F307431C430C61038E0C6996
:10358000C3F30723641CE404C1E912424FF400743E
:103590000C65FBE670B586B000240E4605468DF836
:1035A0000C4000F045F876200094CDE90140234618
:1035B00022462146286801F059FC284601F03EFFCA
:1035C0008DF80C009DF80C0038B9284601F029FE52
:1035D0008DF80C009DF80C0018B19DF80C0006B099
:1035E00070BD31462846FFF789FE8DF80C009DF826
:1035F0000C00A0B9B6F854006946000400900720FA
:1036000001904020CDE9020400010490286801F0F7
:1036100046FC0721284601F097FC8DF80C0005F1C7
:10362000100007C88DE807000FCD01F01FFCD4E79C
:1036300070B50068114986B088421CD110480168F5
:1036400041F4006101604FF4F8500090022500241D
:10365000CDE901540C26CDE9034669460948FEF739
:1036600009FB04200090CDE90154CDE903466946E9
:103670000548FEF7FFFA06B070BD0000002C0140BF
:103680004438024000080240000C02402DE9F04F8F
:103690008BB004460D46DDE91498216800201746DA
:1036A000C862216A022904D1570A4FF4007947EA17
:1036B000C3571021CDE900914021834608010291B2
:1036C000CDE903B06946206801F0E9FB10212046EE
:1036D00001F03AFC060069D108FB09F04FF0FF3A0F
:1036E000CDE905A007A990204FF00209A1E8010A41
:1036F00001200A9005A9206801F096FBB8F1010F9E
:1037000001D9122000E01120CDE90070694620683F
:1037100001F0C5FBB8F1010F1BD91221204601F0C1
:1037200013FC060042D140F22A3B2068416B11EAAB
:103730000B0F24D1406B0004F7D50027206801F05F
:10374000ABFB45F827007F1C082FF7D305F12005B8
:10375000EBE740F22A6B0DE0406B00040AD500272E
:10376000206801F099FB45F827007F1C082FF7D34C
:1037700005F120052068416B11EA0B0FECD0406B7E
:10378000C0050CD5B8F1010F09D9206A18B101287C
:1037900001D0022803D1204600F0CAF8064621686D
:1037A000486B000705D50820886304200BB0BDE8EE
:1037B000F08F486B800703D54846C1F83890F5E78D
:1037C000486B800603D5202088630620EEE7486B0F
:1037D000800504D54FF4007088630720E6E757465C
:1037E00005E000BF01F058FB01C5A7F10107206803
:1037F000416B890201D5002FF4D1216840F2FF50BE
:1038000088633046D2E72DE9F04704468CB00D4678
:10381000002001F023FB800103D50E200CB0BDE891
:10382000F08740261020CDE9006000278001029635
:10383000CDE903706946206801F031FB1021204674
:1038400001F082FB0028E9D1A08C694600040090B9
:1038500037200190206801F022FB3721204601F03B
:1038600073FB0028DAD16020CDE906604FF0FF3805
:103870004FF00209CDF82090CDF814800120CDE959
:10388000097005A9206801F0CFFA0D20CDE900707C
:103890006946206801F003FB0D21204601F054FB2E
:1038A0000600BBD140F22A6A2268506B10EA0A0F68
:1038B00006D0506B000712D5082090630420ADE7B6
:1038C000506B0004F0D50027206801F0E5FA45F8B8
:1038D00027007F1C082FF7D305F12005E4E7506B84
:1038E000800703D54846C2F8389097E7506B8006AA
:1038F00003D520209063062090E7506B800504D507
:103900004FF400709063072088E7474604E001F019
:10391000C3FA01C5A7F101072068416B890201D5EF
:10392000002FF4D1216840F2FF508863304675E7DC
:1039300010B586B0044600200C21CDE900014021DD
:10394000CDE90210080104906946206801F0A7FA49
:103950000C21204601F0F8FA06B010BDFEB5044671
:10396000006A00250E46032805D030B1012804D096
:10397000022802D01FE02720FEBDB6F5805F05D0EB
:10398000B6F5006F04D03EB1262514E0272512E0DD
:10399000204601F042FE02E0204601F005FE05004F
:1039A00009D1211DD4E905700EC90096CDE9017039
:1039B000206801F05BFA2846FEBD2DE9F04F8DB07E
:1039C000044600260D468DF80060DDE91698216852
:1039D00017463046CE62216A022904D1570A4FF4B5
:1039E000007947EAC3571021CDE901914021834670
:1039F0000801CDE904B0039101A9206801F04FFA54
:103A00001021204601F0A0FA002870D1B8F1010F72
:103A100001D9192000E01820CDE9017001A9206822
:103A200001F03DFAB8F1010F01D9192100E0182188
:103A3000204601F089FA002859D1411E069108FB61
:103A400009FA9020CDE907A00120CDE90AB0CDF810
:103A500024B006A9206801F0E7F9B8F1010F55D9A3
:103A600040F21A3B2068416B11EA0B0F55D1406BB5
:103A70004004F7D5AAEB0600202811D281074FEAAF
:103A8000900000D0401C8146002706E029462068AF
:103A900001F015FA2D1D361D7F1C4F45E2D2F5E7CA
:103AA000002705EB8701206801F009FA7F1C082F29
:103AB000F7D305F1200506F12006D3E7486B400453
:103AC00026D5AAEB0600202812D281074FEA9000E3
:103AD00000D0401C8146002706E02946206801F0FE
:103AE000EEF92D1D361D7F1C4F4511D2F5E72BE059
:103AF000002705EB8701206801F0E1F97F1C082F02
:103B0000F7D305F1200506F1200601E040F21A6B1B
:103B10002168486B10EA0B0FD0D02068406BC005BD
:103B20000BD5B8F1010F08D9206A18B1012801D0CE
:103B3000022802D12046FFF7FBFE2168486B0007F0
:103B400005D50820886304200DB0BDE8F08F486BD0
:103B5000800702D502208863F6E7486BC00603D5CC
:103B6000102088630520EFE7486B800504D54FF4EB
:103B7000007088630720E7E740F2FF5088636946DA
:103B8000204601F0BDFB0028DED19DF8001007297A
:103B9000F5D00629F3D0D7E710B5040003D094F888
:103BA000510010B104E0012010BD204600F036F8AD
:103BB000022084F851002068016821F04001016072
:103BC000D4E901010843D4E90312114308436169B0
:103BD0000843218B01F400710843E1690843216A1D
:103BE0000843A16A084321680860A069042101EA2A
:103BF0001040616A0843216848602168E06A0861F2
:103C00002068C16921F40061C161002084F852007C
:103C1000012084F85100002010BD000000B50068AC
:103C20000C4985B0884212D10B48016841F48011DB
:103C300001604FF46070009002200190002002901B
:103C400003900520049069460448FEF713F805B078
:103C500000BD000000500140443802400014024002
:103C60002DE9F843044690F85100DDF82080012842
:103C700001D022287ED169B162B15BB194F85000C5
:103C8000012877D0012684F8506094F8510001286B
:103C900003D005E00120BDE8F883322084F851000C
:103CA000002584F85250A263A387E3872163A3868B
:103CB000E386A564E564A06A4FF40057B84209D1D1
:103CC0002068016821F4005101602068016841F416
:103CD0000051016020680168490603D4016841F081
:103CE00040010160E0684FF48271B0F5006F6068D8
:103CF00007D0002867D088426ED1E08E012862D0BC
:103D00006AE020B188420CD1E08E012809D1206BF5
:103D100021680088C860206B801C2063E08E401EF4
:103D2000E086E08E80B9A06AB84244D1206801687C
:103D300041F4805101603EE02068C068A16B0880BA
:103D4000A06B801CA0639EE0434600220221204617
:103D500001F0E2FD002873D1206B21680088C86063
:103D6000206B801C2063E08E401E0004000CE08667
:103D700009D100E0C9E0A06AB84204D12068016816
:103D800041F480510160434600220121204601F0A8
:103D9000C3FD00286FD12068C068A16B0880A06BAC
:103DA000801CA063E08F401EE087E08E0028CBD10E
:103DB000606800286AD1434600220121204601F0B4
:103DC000ABFDE8BBB8E7206B411C2163216800789C
:103DD000C860E08E401EE086E08E98B9A06AB842C6
:103DE00004D12068016841F48051016043460022FB
:103DF0000121204601F090FD10BB2068C068A16B36
:103E0000087040E0434600220221204601F084FD74
:103E1000B0B9206B411C216321680078C860E08E36
:103E2000401E0004000CE08607D1A06AB84204D10D
:103E30002068016841F4805101604346002200E09F
:103E400019E00121204601F067FDA0B92068C16892
:103E5000A06B421CA2630170E08F401EE087E08EE1
:103E60000028CFD1606888B943460022012120464E
:103E700001F052FD08B103200DE72068C168A06B76
:103E8000421CA2630170E08F401EE087A06AB84226
:103E90000FD1434600220121204601F03DFD20B113
:103EA00014F8520F40F002000EE02068C068ADF830
:103EB0000000434601228021204601F02DFD28B15B
:103EC00014F8520F40F020002070D4E784F85160BD
:103ED00020688168A26AC1F30011BA4211D181B190
:103EE0003334E17F41F00201E177016821F40051B0
:103EF000016054F8330C016841F4005101606577AA
:103F0000C8E684F850500020C5E60220C3E670479A
:103F100010B5401EB0F1807F01D3012010BD4FF0DD
:103F2000E02460610F21601700F062FC0020A061B6
:103F300007202061002010BD10B5FFF7E8FF10BD7D
:103F400010B5040003D094F8390010B104E001204A
:103F500010BD204600F022F8022084F839002068C5
:103F6000C16821F40051C160204601F019FE2068AB
:103F7000016921F4904101612068416921F02A0121
:103F800041612068C16841F40051C160002084F89B
:103F90003A00012084F83900002010BD00B5006807
:103FA0000B4985B0884211D10A48016841F40021CB
:103FB000016003200221CDE900010021CDE90210BA
:103FC0000820049069460448FDF754FE05B000BD82
:103FD000004C004040380240000002402DE9F0470C
:103FE000044690F8390099460D46012801D0222850
:103FF00058D12DB322B394F83800012852D00126AD
:1040000004F8386F0027A7706078383C22281AD04F
:104010005FF0120084F83900A284E2844FF48058E3
:10402000E08C4B46401EE084A0684FF00002404503
:104030004FF08001204613D101F06EFE08BB04E072
:104040000120BDE8F0873220E4E728882168C0F32A
:1040500008004860206908B16D1C08E0AD1C06E04E
:1040600001F05AFE68B9216815F8010B4860E08C30
:104070000028D5D14B4600224021204601F04CFEBD
:1040800008B10320DDE794F83900322806D084F81F
:10409000396000BF84F838700020D2E7222084F80D
:1040A0003900F7E70220CCE701A0FCF75FBA000077
:1040B000486172644661756C740000002DE9F04738
:1040C000044600680D469146016841F48061016034
:1040D0002068016841F48071016013464FF00117B8
:1040E00000223946204600F083F8A0BB206907F182
:1040F0000108B0F5804F12D00620216800EAD516DD
:1041000046F0F00008614A46F91D204600F0B5F877
:1041100048B100BF94F8360004282BD01BE0E8B269
:1041200040F001001CE02168E8B208614A464146BF
:10413000204600F0A2F80028ECD12068416981698E
:10414000016841F4807101604B46002239462046E7
:1041500000F04EF810B10320BDE8F08746F0F10002
:10416000216808614A464146204600F086F800284A
:10417000D0D1F1E70120EFE770B5044600680D46A5
:104180001646016841F480710160134600224FF029
:104190000111204600F02CF8A0B92069B0F5804F3D
:1041A00012D00620216800EAD51040F0F000086126
:1041B00032460E49204600F060F840B194F83600CF
:1041C000042810D0032070BD05F0FE0000E0E8B226
:1041D0002168086105493246891F204600F04DF8E4
:1041E0000028EBD170BD012070BD00000800010067
:1041F0002DE9F05F1E4690460C460546FDF728FE69
:1042000081464FF0000A4FF0010BC4F30747B8F1A5
:10421000000F09D024E0701C06D0D6B1FDF718FEBF
:10422000A0EB0900B04214D82868012F06D080699D
:1042300024EA00000004000C1BD0ECE74069F7E71B
:10424000701C0DD02EB1FDF703FEA0EB0900B042AB
:1042500006D985F835B085F834A00320BDE8F09F75
:104260002868012F07D0806924EA00000004000CB0
:10427000E6D00020F2E74069F6E72DE9F0479146E5
:104280000D460446FDF7E4FD824600274FF0010885
:10429000C5F3074629E020684069C043400512D4B1
:1042A0002068016841F40071016021686FF480604A
:1042B0004861042084F8360084F8358084F834702E
:1042C0000120BDE8F08719F101000ED0B9F1000F0F
:1042D00005D0FDF7BDFDA0EB0A01494505D93434F1
:1042E00084F8018027700320EBE72068012E06D0B8
:1042F000806925EA00000004000CE2D0CBE74069A9
:10430000F7E770B5D0F81842054604F50051087E6D
:1043100038B9486928B1607A18B90121284601F0F6
:10432000FCFF8121284601F0F8FF607A022809D1BC
:1043300042F20C0022182846BDE870401F230121DC
:1043400001F07CBF70BD000070B5D0F81842064681
:1043500004F50055012128692863686968633046BF
:1043600001F01CFF1F280AD12649E868884206D1BF
:10437000697E012903D8A87E08B1102808D9697E72
:1043800020230522304600F0D2FC022060720AE0B1
:1043900042F21B002218304600F0A4FA0028207ACE
:1043A00008DA052804D03046BDE87040FFF7A9BF01
:1043B000012121E0022824D0012822D0032820D086
:1043C0006389C3B1D6F8185204F10C0205F5005107
:1043D00030464C699C4200D223464C6B9BB2E41A97
:1043E0004C63002481F8384004212972BDE87040F4
:1043F000812101F0A8BF00213046BDE8704000F0E7
:1044000089B870BD5553424310B5D0F81842627A4E
:10441000022A08D009060BD5012A09D0BDE81040B0
:10442000012100F077B8812101F077FF0020607250
:1044300010BD10B5D0F818220446107A022805D015
:10444000032801D0042811D100210AE042F219000A
:10445000815C801C0244204600F044FA002805DA02
:1044600001212046BDE8104000F054B810BD10B541
:10447000D0F818220446107A88B1012814D142F2EB
:104480001900815C801C0244204600F02BFA0028B1
:104490000ADA2046BDE81040012100F03BB8204672
:1044A000BDE81040FFF750BF10BDD0F81802002142
:1044B0000172704770B5D0F818420546002104F526
:1044C000005021725C30617241700170D5F81C029D
:1044D0000168002088470121284601F058FE81210B
:1044E000284601F054FE42F20C0022182846BDE88E
:1044F00070401F23012101F0A1BED0F81812002244
:104500001F230A7201224A7242F20C020A4401215C
:1045100001F094BE70B5D0F81842054604F500527B
:104520000B48D06282F838100020207242F22C0032
:1045300022180D238121284601F005FF42F20C00CC
:1045400022182846BDE870401F23012101F076BEE5
:104550005553425300B5164887B0144901600121F4
:104560000022C0E901120421C16010214023C0E9EA
:1045700004134FF4C073C0E90632DB00C0E908320F
:104580004A02826200910191029103910491059186
:1045900006916946FEF708FE10B106A0FBF7E6FF9C
:1045A0000348343000F090FC07B000BD400100A08B
:1045B0001805002045727220696E697420666D636B
:1045C000000000002DE9F04F664885B0016841F019
:1045D00010010160016841F004010160016841F0CF
:1045E00020010160016841F080010160016841F033
:1045F00001010160016841F002010160016841F0C0
:1046000040010160016841F0080101606420032657
:10461000CDE90006DFF85081002469460294404647
:10462000FDF728FB08200125022703948DE8A1004F
:1046300069464046FDF71EFB42F22000CDE900042A
:10464000DFF82891694648460294FDF713FB4CF2C7
:10465000C000CDE90006694602944846FDF70AFB12
:104660004020CDE90005DFF80881CDE90254694614
:104670004046FDF7FFFAA802CDE90006694602941C
:104680004046FDF7F7FACDE90075CDE902546946D9
:104690004846FDF7EFFA0C2003948DE8A100DFF8FF
:1046A000D48069464046FDF7E5FA48F28010CDE92E
:1046B0000006694602944046FDF7DCFA4FF0100808
:1046C0002D48CDF80080CDE9010469464846FDF744
:1046D000D1FA4FF20300CDE90005DFF8A090CDE953
:1046E000024769464846FDF7C5FA0420CDE90006B1
:1046F000694602944846FDF7BDFA4FF460500090B9
:10470000CDE90154DFF878A0694650460394FDF7DF
:10471000B1FA45F2CC20CDE90006DFF868B0694671
:1047200002945846FDF7A6FAF020CDE90006694646
:1047300002945046FDF79EFA6803CDE90005CDE9E5
:10474000025469465846FDF795FACDF80080CDE948
:104750000174CDE9034769464846FDF78BFA05B079
:10476000BDE8F08F303802400010024000080240DF
:104770000014024000000240000012100004024039
:10478000000C0240001802400A4809494FF4007228
:1047900001604FF48271416000218160C16001615C
:1047A000C0E90512C161016241628162FFF7F4B99B
:1047B000005001408804002010B500220849094833
:1047C00001F030FC0849074801F09AFE0749054806
:1047D00001F01CFEBDE81040024801F0DFBE000001
:1047E00010000020AC050020E00000208C0000201C
:1047F0000907090E002803DA00F00F00024A00E062
:10480000024A81547047000014ED00E000E400E02B
:1048100010B54320FDF74AFDBDE810400148FDF703
:10482000EFBE0000D00700202DE9F84F0E46C1EB87
:10483000C60100EB810530358246D0F80080D5E90D
:104840000501441AA868A04200D20446E01CC11722
:1048500000EB9170871008EB461918E0441AA8681D
:10486000A04200D20446E01CC11700EB91708710F3
:104870009AF810000090A3B2F2B24046E96802F044
:104880002DFCE8682044E860A8692044A861D9F8B4
:10489000180980B2B84205D9D5E90501814201D293
:1048A0000028DBD1002C08DC0120D8F83428B040E7
:1048B00040F63401824341F808200020BDE8F88F1B
:1048C00010B5D0F818421A4404F50054236E9A42E9
:1048D00006D92123052200F02AFA4FF0FF3010BD3F
:1048E000002010BD2DE9F04113780024651E232B14
:1048F00074D00DDC1A2B63D005DCBBB1032B37D091
:10490000122B11D138E01B2B56D01E2B0CD153E0AB
:104910002A2B73D004DC252B77D0282B04D178E008
:104920002F2B7ED05A2B5AD0202380E0D0F818723B
:10493000064607F500508846416931B1417E202383
:104940000522304600F0F3F97DE0D6F81C028168BC
:104950004046884740B13A2302224146304600F0A3
:10496000E6F9052038726EE020467C81BDE8F081D2
:10497000BDE8F04100F0A9B95578D0F81832ED073C
:1049800003D00720324958810EE0D0F81C0201EB19
:10499000C1011279C06900EB81010879401D824292
:1049A00000D81046588104E0401E80B21D180A5CF1
:1049B0002A730028F8D11FE0D0F8180244811BE0C8
:1049C000D0F818120820234A4881401E0004000C29
:1049D00001EB0005135C2B73F7D10DE011E0D0F86B
:1049E000180208211C4A4181491E0904090C00EBE8
:1049F0000105535C2B73F7D12046B7E70DE004E0C7
:104A00000FE0BDE8F04100F029B9BDE8F04100F049
:104A1000F7B8BDE8F04100F0A6B8BDE8F04100F0FD
:104A2000A5B95278D0F81862920702D5242305223E
:104A300088E706F50052B2F86830526E9BB2FFF775
:104A40003FFF002801DA284690E7204674818DE771
:104A5000907B0008977B00089F7B00082DE9F047BA
:104A6000D0F81862074606F500544FF40050A56EC2
:104A70008846854200D30546B4F85E00B5FBF0F1E8
:104A80008BB2616EB1FBF0F2D7F81C0206F10C019B
:104A90008946D0F810C04046E047002809DA1123C3
:104AA00004224146384600F042F94FF0FF30BDE89D
:104AB000F087ABB24A468121384601F044FC606E73
:104AC00028446066A06E401BA066616BA1EB0501E7
:104AD000616301D1032030720020E8E72DE9F0473F
:104AE0008846D0F818124FF4005601F500540746D6
:104AF000A56EB54200D33546B4F85E000C31B5FB67
:104B0000F0F293B2626E8946B2FBF0F2D7F81C0263
:104B1000D0F814C04046E047002809DA03230422F5
:104B20004146384600F003F94FF0FF30BDE8F0870A
:104B3000606E28446066A06E401BA066616BA1EBAE
:104B4000050161630AD0B04200D3304683B24A46C1
:104B50000121384601F072FB0020E7E700213846CA
:104B6000FFF7D8FCF8E72DE9F047D0F818520646D1
:104B70001746287A8946C8BB05F500544FF0FF3820
:104B8000207E00062ED5D6F81C028168484688474C
:104B900030B13A2302224946304600F0C8F811E00D
:104BA000D7F80200494600BA20F0FF0278790243A4
:104BB0006266B7F8070043BA3046A366FFF780FE87
:104BC000002802DA4046BDE8F08702202872B4F8D7
:104BD0005E10606E48436066A06E4843A0666169DF
:104BE000814204D02023617E0522D5E7FFE74FF400
:104BF0000050688149463046BDE8F047FFF72EBFB8
:104C000070B505460E46D5E98640436842F25E001F
:104C10002218801C21183046984740B13A230222BE
:104C20003146284600F083F84FF0FF3070BD04F5A0
:104C30000051086E401E020E2273020C6273020ABB
:104C4000A273E073002020746074B1F85E00010A62
:104C5000A174E07408206081002070BD2DE9FC4142
:104C60000546D0F8184200200F4606462118401C81
:104C700080B20E730C28F9D3D5F81C026A4601A93C
:104C800043683846984748B13A23022239462846B5
:104C900000F04DF84FF0FF30BDE8FC810820E073D4
:104CA0000198401E010E2174010C6174010AA17467
:104CB000E074022020756675BDF80000010AA17538
:104CC000E0750C2060810020E6E770B5D0F818028E
:104CD00000210D464318491CC9B21D731229F9D38E
:104CE000702101730C21C17400F5005191F85C3002
:104CF00091F85D40A34212D000EBC30404F50054C8
:104D00005B1C14F83C6F8673667906762479DBB2F7
:104D1000447681F85C30042B01D181F85C5012217B
:104D200041811179122900D84181002070BD10B550
:104D3000D0F8181201F5005010F85D4F01EBC404D3
:104D400004F5005484F83C201A02037801EBC301F7
:104D500001F500510A640178491CC9B200F85D19D7
:104D6000042902D1002180F85D1010BD2DE9F04723
:104D7000D0F8185206461746287A894620B13046A0
:104D8000BDE8F047FFF7AABE05F500544FF0FF3825
:104D9000207E000635D4D6F81C0281684846884734
:104DA00028B13A230AE03046FFF7C1FF1BE0D6F8EE
:104DB0001C02C1684846884718B127230222494689
:104DC000F1E7D7F80200494600BA20F0FF027879EF
:104DD00002436266B7F8070043BA3046A366FFF79E
:104DE0006FFD002802DA4046BDE8F087B4F85E00A7
:104DF000616E41436166A16E4143A166606988426C
:104E000003D02023617E0522CDE7012028724003D4
:104E1000814200D301468BB205F10C0201213046DC
:104E200001F00CFA0020DFE70A6842624A688262F9
:104E3000D1E902231A43D1E904310B43C16A1A4371
:104E400021F0F7011143C162002070470069C0B230
:104E50007047006800F003007047000008B5024981
:104E600008440090006808BD142C014070B50DF195
:104E7000100C1143BCE870002343194329434268D6
:104E8000314347F6FF639A430A434260002070BDF6
:104E90000321016000207047D0F8800070470A6845
:104EA0008260D1E901231A43D1E903310B43C16880
:104EB0001A436FF30B011143C1600020704709686A
:104EC000C0F88010002070472DE9F8430446002503
:104ED000012608270095C4E90067C4E902654FF47C
:104EE000805901464A461748FEF790F96420FCF7BE
:104EF0005FFE0220C4E90007C4E902654A46214674
:104F00001048FEF783F903204FF00408E56084E8B9
:104F100081014A4621460B48FEF778F940F23120DC
:104F20000090C4E90260C4E900874A46214605486A
:104F3000FEF76CF9BDE8F8434FF41F710148FEF726
:104F400053B900001805002070B5054600680E46EC
:104F50000024416B11F0450FFBD0416B490703D58D
:104F600003210422826304E0416BC90703D00121BD
:104F70008163084670BDFFF769FFB0422BD12968F5
:104F800040F2FF5088630020FFF768FF284908427D
:104F90004BD0002801DA1C2070BD410001D509204A
:104FA00070BD810001D50A2070BDC10001D50B2064
:104FB00070BD010101D50C2070BD410101D50D204E
:104FC00070BDC10101D50E2070BD010201D50F20B9
:104FD00070BD410201D5102070BD810201D51120A4
:104FE00070BDC10201D5122070BD010301D513208F
:104FF00070BD410301D5142070BD810301D515207A
:1050000070BDC10301D5162070BD010401D5172064
:1050100070BD410401D5182070BD810401D519204F
:1050200070BD000701D51A2070BD204670BD00007C
:1050300008E0FFFD0146002009684A6B12F0450FA9
:10504000FBD04A6B520702D50320042207E04A6BCB
:10505000D20702D001208863704740F2FF528A6372
:1050600070472DE9F0410446006815460E460027BA
:10507000416B11F0450FFBD0416B490703D503216C
:105080000422826304E0416BC90704D001218163DB
:105090000846BDE8F081FFF7D9FEB04213D1216880
:1050A00040F2FF5088630020FFF7D8FE10F4604FF5
:1050B00003D0810405D51320EBE74FEA1040288088
:1050C00007E0410401D51020E3E7000401D50F20DB
:1050D000DFE73846DDE70146292009684FF48032D2
:1050E0004B6B13F0450F07D14B6BA2F1010213F08C
:1050F000450F01D1002AF7D14B6BC3F3800302B1F6
:1051000013B10320042204E04A6B520602D50020AA
:1051100040228A6370472DE9F04F91B000250F4679
:10512000069508261021CDE9006140210795044627
:10513000CDE9021508010490A84669462068FFF7EA
:10514000AEFE10212046FFF7FFFE00283BD1A08CC9
:10515000694600040090372001902068FFF79FFE09
:1051600037212046FFF7F0FE00282CD1401ECDE964
:10517000080630204FF00209CDE90A090120CDE9E7
:105180000C80B246464608A92068FFF74DFE332042
:10519000CDE9006069462068FFF781FE3321204693
:1051A000FFF7D2FE06000ED10DF1180B40F22A686F
:1051B0002068416B11EA080F08D0416B09070FD531
:1051C000C0F838A0042011B0BDE8F08F416B89020F
:1051D000EED5FFF761FE4BF8250005F10105E7E785
:1051E000416B890703D5C0F838904846EBE7416B1F
:1051F000890603D5202181630620E4E7416B8905F8
:1052000004D54FF4007181630720DCE740F2FF51C1
:105210008163069800BA7860079800BA3860304613
:10522000D1E770B586B004460120ADF81400002522
:105230002068FFF70EFE58B3206A04285DD00020D6
:105240000221C0268DE8430003904802049069467D
:105250002068FFF724FE2046FFF7ECFE050018D17A
:10526000FFF7FCFDA0630420FFF7F8FDE0630820D2
:10527000FFF7F4FD20640C20FFF7F0FD6064206A66
:1052800048B1012807D0062805D0022803D011E034
:10529000252006B070BD0320019040200290694691
:1052A0002068FFF7FCFD05AA03212046FFF7D9FE81
:1052B0000500EED1206A04281FD0BDF814006062FA
:1052C000000400900920CDE9010669462068FFF737
:1052D000E6FD2046FFF7AEFE0500DAD1FFF7BEFD82
:1052E000A0620420FFF7BAFDE0620820FFF7B6FDD8
:1052F00020630C20FFF7B2FD60632846C9E7000079
:1053000070B586B0044600260D460096A18C0904AF
:1053100001910D2102914021CDE90316080105906C
:1053200001A92068FFF7BBFD2068416B11F0450F14
:10533000FBD0416B490703D503210422826304E0BB
:10534000416BC90704D001218163084606B070BDD6
:10535000FFF77CFD0D2838D1216840F2FF508863AB
:105360000020FFF77BFD0090C0F3432028703249F6
:10537000009808425DD00098002801DA1C20E5E77B
:10538000400001D50920E1E70098800001D50A20FE
:10539000DCE70098C00001D50B20D7E7009800019A
:1053A00001D50C20D2E70098400101D50D20CDE7B2
:1053B0000098C00101D50E20C8E70098000201D571
:1053C0000F20C3E70098400201D51020BEE70098E7
:1053D000800201D51120B9E70098C00201D5122042
:1053E000B4E70098000301D51320AFE7009840030D
:1053F00001D51420AAE70098800301D51520A5E760
:105400000098C00301D51620A0E70098000401D53C
:1054100017209BE70098400401D5182096E70098D4
:10542000800401D5192091E70098000701D51A20C2
:105430008CE730468AE7000008E0FFFD2DE9F04FD9
:1054400087B0002504468DF80050554EA846A94661
:1054500035600068FFF71CFD01273760BE02CDE90B
:10546000045601950295039501A92068FFF717FDE1
:1054700023680021B0015A6BC2F3C01204E05A6BDA
:10548000401EC2F3C0120CD0002AF8D048B140F23E
:10549000FF5098638DF800109DF8000000287AD125
:1054A00001E00321F6E74FF4D570019008204FF09A
:1054B000400ACDE9020A01A92068FFF7F0FC204666
:1054C000FFF709FE8DF800009DF8000010B94FF0BD
:1054D000804927623727CDE9015701A92068FFF7E6
:1054E000DEFC37212046FFF72FFD8DF800009DF8E8
:1054F0000000D8B34FE00397CDE9015BCDE9045636
:1055000001A92068FFF7CBFC37212046FFF71CFDDF
:105510008DF800009DF8000048BB2249CDE90456F3
:1055200049EA010001902920CDE9020701A920687C
:10553000FFF7B5FC20680021426B12F0450FFBD04D
:10554000426B520702D50321042201E040F2FF52D0
:1055500082638DF800109DF8000040B90020FFF72D
:105560007DFCC10F08F1010805D008E000E012E061
:10557000BB465746BFE74FF6FF718845BBD34FF692
:10558000FF72904503D31B208DF8000003E040001C
:1055900001D5022020629DF8000007B0BDE8F08F21
:1055A000A08025420000108030B589B00025044657
:1055B000019528460295FFF751FC800102D50E2087
:1055C00009B030BD01A92046FFF7A5FD0028F7D19D
:1055D0000298C0031FD5A08C03A9000403903720B4
:1055E00004904020CDE90505000107902068FFF7F1
:1055F00056FC37212046FFF7A7FC0028E0D1062003
:10560000CDE9035003A92068FFF749FC0621204695
:10561000FFF79AFCD4E72520D2E730B589B0002502
:105620000446019528460295FFF718FC800102D533
:105630000E2009B030BD01A92046FFF76CFD0028FF
:10564000F7D10298400320D5A08C03A90004039051
:10565000372004904020CDE905050001079020681F
:10566000FFF71DFC37212046FFF76EFC0028E0D134
:10567000022003900620049003A92068FFF70FFC86
:1056800006212046FFF760FCD3E72520D1E7000084
:1056900010B5064C01202070FAF76CFE18B920787E
:1056A00020F001002070207810BD0000C400002010
:1056B00010B50C461149024696B009780120C90779
:1056C00002D0032016B010BDA2B1012A07D04FF4BA
:1056D0000071022A0DD0032A0ED00420F2E768469A
:1056E000FAF73CFEDDE91201400A40EAC1502060B1
:1056F00000E021800020E5E72160E3E7C40000200E
:105700001CB54FF40073CDE9003200244A02234651
:10571000FAF758FE00B1012420461CBD10B5064C16
:1057200001202070FAF720FE18B9207820F001003F
:105730002070207810BD0000C40000201CB54FF47C
:105740000073CDE9003200244A022346FAF74AFEEC
:1057500000B1012420461CBD10B5084C0022402198
:105760002046FCF76FFB062002F0A0F8204601223D
:10577000BDE810404021FCF765BB0000001402406A
:105780002DE9F0410E460546002430441746B0F599
:10579000001F16D2AEB1DFF84C80002240214046F7
:1057A000FCF750FB032002F081F8C5F3074002F03C
:1057B0007DF8C5F3072002F079F8E8B202F076F838
:1057C00007E00020BDE8F081FF2002F06FF83855B7
:1057D000641CB442F8D3012240214046FCF732FB5E
:1057E0000120EFE70014024070B50A4D002240216D
:1057F0002846FCF727FB052002F058F8FF2002F0AE
:1058000055F80446012240212846FCF71BFB2046A0
:1058100070BD0000001402402DE91040FFF7E4FFC6
:10582000C007FBD110BD2DE9F0410D4606462844C6
:10583000401E1746B0F5001F18D2BDB1C6F30B00CD
:10584000C0F58054A54200D8ACB24FF4805822462F
:105850003146384600F00FF8A5420AD027442644C6
:105860002D1B4446A542F2D8ACB2F0E70020BDE8BB
:10587000F0810120FBE72DE9F0410746C8B2C0F5F1
:1058800080740E461546A24200D814464FF4807824
:1058900022463146384600F00FF8A54208D0281BB2
:1058A0002744264485B24446A542F1D82C46EFE76A
:1058B0000120BDE8F08100002DE9F04115460C46BD
:1058C0000646FFF749FF134F002240213846FCF7F8
:1058D000B9FA022001F0EAFFC4F3074001F0E6FF45
:1058E000C4F3072001F0E2FFE0B201F0DFFF002483
:1058F00004E0305D01F0DAFF641CA4B2AC42F8D3DE
:10590000012240213846FCF79DFABDE8F041FFF73F
:1059100083BF0000001402402DE9F0471D46904669
:105920000E460446FCF794FA07465FEA08004FF07B
:1059300000084FF4005A4FF0010926D034E0681CEB
:1059400023D025B1FCF784FAC01BA8421DD92068DA
:10595000416821F0E00141602068016821F04001C8
:105960000160A06A504509D12068016821F4005106
:1059700001602068016841F40051016084F8519091
:1059800084F850800320BDE8F0872068806836EAFC
:105990000000D4D10DE0681C06D0002DD7D0FCF754
:1059A00057FAC01BA842D2D82068806836EA0000A7
:1059B000F1D00020E7E770B514460D4610B101287C
:1059C0000BD00FE0FAF71EFD2080FAF727FD2288A2
:1059D0000023FAF707FC286004E04FF40070108001
:1059E000C0000860002070BD0120704702490120FE
:1059F0000870002070470000420000200348007833
:105A000008B1002070474FF0FF307047420000207F
:105A10000020704770B515460E464FF0FF3410B1A8
:105A2000012808D012E0DAB229463046FFF768FEB6
:105A300060B107A006E0DAB229463046FAF7A6FDC3
:105A400020B107A0FAF792FD204670BD002070BD7E
:105A50005344436172642052656164204552520090
:105A60004578466C617368205265616420455252E6
:105A70000000000070B515460E464FF0FF3410B11F
:105A8000012808D012E0DAB229463046FFF756FE68
:105A900060B107A006E0DAB229463046FAF784FD85
:105AA00020B108A0FAF762FD204670BD002070BD4D
:105AB00053444361726420577269746520455252A1
:105AC000000000004578466C617368205772697465
:105AD000652045525200000010B5FCF7B3FBBDE84D
